:020000040800F2
:1000000080040020A9010008B1010008B301000824
:10001000B5010008B7010008B901000800000000A0
:10002000000000000000000000000000BB0100080C
:10003000BD01000800000000BF01000851120008C7
:10004000C3010008C3010008C3010008C301000880
:10005000C3010008C3010008C3010008C301000870
:10006000C3010008C3010008C3010008C301000860
:10007000C3010008C3010008C3010008C301000850
:10008000C3010008C3010008C3010008C301000840
:10009000C3010008C3010008C3010008C301000830
:1000A000C3010008C3010008C3010008C301000820
:1000B000C3010008C3010008C3010008C301000810
:1000C000C3010008C3010008C3010008C301000800
:1000D000C3010008C3010008C3010008C3010008F0
:1000E000C3010008C3010008C3010008C3010008E0
:1000F000C3010008C3010008C3010008C3010008D0
:10010000C30100080000000000000000C301000857
:10011000C3010008C3010008C3010008C3010008AF
:10012000C3010008C3010008C3010008C30100089F
:10013000C3010008C3010008000000000000000027
:10014000C3010008C3010008C3010008000000004B
:10015000000000000000000000000000000000009F
:10016000C3010008C3010008C3010008C30100085F
:10017000C3010008C3010008C3010008C30100084F
:10018000C3010008C30100080000000000000000D7
:10019000C3010008DFF80CD000F020F80048004749
:1001A000C116000880040020064880470648004722
:1001B000FEE7FEE7FEE7FEE7FEE7FEE7FEE7FEE717
:1001C000FEE7FEE7D912000895010008421C10F86E
:1001D000011B0029FBD1801A70470000064C074D17
:1001E00006E0E06840F0010394E807009847103407
:1001F000AC42F6D3FFF7D2FF701700089017000843
:1002000070B5044600F0FAF80546601C02D00448B8
:100210000078044400F0F2F8401BA042FAD370BD0D
:10022000000000202DE9F84FDFF8A0B100230127DE
:100230004FF0030A4FF00F090BF1040EBEE000BFB0
:1002400007FA03F63440220072D04C68022C01D029
:10025000122C12D1DC0800EB840CDCF820405D0786
:10026000ED0E09FA05F824EA0804D1F8108008FA1E
:1002700005F848EA0408CCF82080D0F800805D003A
:1002800091F804C00AFA05F40CF0030C28EA0408FB
:100290000CFA05FC4CEA080CC0F800C0D1F804C008
:1002A000BCF1010F08D0BCF1020F05D0BCF1110F59
:1002B00002D0BCF1120F16D1D0F808C0D1F80C80D2
:1002C0002CEA040C08FA05F848EA0C08C0F8088083
:1002D000D0F804C02CEA060C0E79C6F300169E4036
:1002E00046EA0C064660C668A6438C68AC403443B8
:1002F000C4604C68E40060D5354CA56945F0010543
:10030000A561A46923F0030504F001040094314CB5
:100310002E19B4689D074FEA157C09FA0CF5AC4319
:10032000B0F1904F05D02C4DA84204D101251CE01E
:1003300043E0002519E0294DA84201D1022514E02F
:10034000274DA84201D103250FE0264DA84201D137
:1003500004250AE0244DA84201D1052505E0234DDE
:10036000A84201D1062500E0072505FA0CF5254332
:10037000B560DBF800405D464E689443F60300D557
:1003800014432C60DEF8004075464E689443B60373
:1003900000D514432C600D4D08352C684E689443ED
:1003A000F60200D514432C60084D0C352C684E68BD
:1003B0009443B60200D514432C605B1C0A681446B3
:1003C000DA407FF43DAFBDE8F88F00000004014043
:1003D00000100240000001400004004800080048EE
:1003E000000C0048001000480014004800180048A5
:1003F0000AB18161704781627047000001488068DE
:100400007047000000000020024881680278114413
:100410008160704700000020074810B5016841F076
:1004200010010160032000F089F8002000F006F8B8
:1004300000F024F8002010BD0020024070B50D4DE2
:1004400004464FF47A712878B1FBF0F00A49096844
:10045000B1FBF0F000F0ABFD48B9102C07D2002240
:100460002146501E00F04AF800206C6070BD01204B
:1004700070BD0000000000200C0000201E4808B5E0
:10048000816941F001018161816901F001010091FF
:10049000C16941F08051C161C06900F08050009095
:1004A000072000F04BF8002211466FF00B0000F01F
:1004B00025F8002211466FF00A0000F01FF8002214
:1004C00011466FF0090000F019F800221146501F84
:1004D00000F014F800221146101F00F00FF800225F
:1004E0001146901E00F00AF80022BDE808401146AF
:1004F000501E00F003B8000000100240F0B40E4B94
:100500001B680C46C3F30223C3F10705042D00D971
:100510000425191D072901D2002300E0DB1E012656
:1005200006FA05F1491E214099409E40761E16406C
:100530003143F0BC00F07CBE0CED00E0064900F059
:10054000070208684FF6FF03184040EA0220034AFA
:1005500010430860704700000CED00E00000FA0551
:100560002DE9F84F044600689F4DC0036FD5E86938
:100570000026C00008D4E86940F08050E861E869CE
:10058000012600F08050009098480168C90512D4F7
:100590000168804641F480710160FFF72FFF074634
:1005A00005E000BFFFF72AFFC01B642835D8D8F844
:1005B0000000C005F6D5286A10F4407053D0A18819
:1005C00001F4407181424ED0286A4FF4803191FA93
:1005D000A1F2B2FA82F29700854A4FF0010817445F
:1005E00020F44070C7F8008491FAA1F1B1FA81F1CA
:1005F00002EB81010023C1F800342862C00732D029
:10060000FFF7FCFE074641F2883A4FF0020907E087
:10061000FFF7F4FEC11B514502D90320BDE8F88F56
:1006200099FAA9F1B1FA81F141F040024846B8EBDC
:10063000521F01D12A680CE090FAA0F2B2FA82F2BD
:1006400042F04002B0EB521F02D12A6A01E015E0ED
:100650006A6A99FAA9F0B0FA80F000F01F0008FA6F
:1006600000F10A42D4D0286A616820F4407008433F
:1006700028621EB1E86920F08050E8612078C00748
:1006800005D0286BA16820F0030008432863207878
:10069000800705D5286BE16820F4403008432863C3
:1006A0002078400705D5286B216920F440200843B5
:1006B00028632078800605D5286BE16920F01000BA
:1006C000084328632068800305D56868616D20F4BD
:1006D0008000084368602078400605D5286B216AB1
:1006E00020F02000084328632068400305D5286BCC
:1006F000616A20F04000084328632078000705D590
:10070000286B616920F44010084328632078C006F4
:1007100005D5286BA16920F4400008432863208890
:10072000800505D56868216B20F4000008436860E7
:100730002078000605D5E86AA16A20F4F87008431D
:10074000E8622088C00505D5E86AE16A20F478509F
:100750000843E8622088C00405D5286B616B20F44B
:100760008070084328632088800405D5286B216C9D
:1007700020F40070084328632068C00205D5286B68
:10078000A16B20F08070084328632068800205D5A3
:10079000286BE16B20F0007008432863206840025A
:1007A00005D5286B616C20F48060084328632068BD
:1007B000000205D5286BA16C20F400600843286373
:1007C0002068C00105D5286BE16C20F40050084377
:1007D00028632068800105D5286B216D20F4004036
:1007E00008432863002019E7001002400070004011
:1007F000000042422DE9F0470F46050069D04A4EFD
:10080000306800F00700B84209D2306820F00700D5
:1008100038433060306800F00700B84259D128787A
:10082000424C800705D56068A96820F0F0000843B5
:1008300060602878C0073DD06968012001290DD08B
:10084000022923D05FF0020393FAA3F2B2FA82F2F4
:1008500042F02002520904D0226803E04FF4003332
:10086000F2E7626A93FAA3F3B3FA83F303F01F0388
:10087000984002422DD0606820F003000843606079
:10088000FFF7BCFD804641F288390CE04FF0007361
:10089000DAE700BFFFF7B2FDA0EB0801494502D936
:1008A0000320BDE8F0876068696800F00C00B0EBD9
:1008B000810FEFD1306800F00700B8420BD93068E3
:1008C00020F0070038433060306800F00700B8427D
:1008D00001D00120E5E72878400705D56068E96880
:1008E00020F4E060084360602878000706D560685F
:1008F000296920F4605040EAC100606000F052F8BD
:100900006168F02292FAA2F201F0F001B2FA82F2EA
:10091000D140074A515CC840064908600020FFF7F3
:100920008DFD0020BDE700000020024000100240C5
:10093000581700080C0000200148006870470000AC
:100940000C00002008480949006849684FF4E0623B
:1009500092FAA2F201F4E061B2FA82F2D140044AC2
:10096000515CC840704700000C000020001002409D
:100970006817000808480949006849684FF4605240
:1009800092FAA2F201F46051B2FA82F2D140044A22
:10099000515CC840704700000C000020001002406D
:1009A00068170008124B10B55968124801F00C0284
:1009B000042A1CD0082A1AD14FF4701494FAA4F413
:1009C00001F47012B4FA84F4E2400B4CDB6AA25CCE
:1009D0000F2494FAA4F403F00F03B4FA84F4E34070
:1009E000054CC9031034E35CB0FBF3F0504310BD79
:1009F0000010024000127A00381700082DE9F84F65
:100A000004007DD02078FA4DC0074FF0010637D0A2
:100A100068687704C0F38100012819D06868C0F3C2
:100A20008100022804D16868C0F3C13002280FD0C9
:100A30006068B0F5803F24D010B1B0F5A02F2AD067
:100A4000286820F480302860286820F480201BE08B
:100A500097FAA7F0B0FA80F040F02000400901D0EA
:100A6000286800E0686A97FAA7F1B1FA81F101F00D
:100A70001F0106FA01F108424ED060680028C0D07C
:100A80004AE0286840F480302860606820B3FFF7AF
:100A9000B5FC80460AE0286840F480202860F0E732
:100AA000FFF7ACFCA0EB0800642873D897FAA7F016
:100AB000B0FA80F040F02000400901D0286800E042
:100AC000686A97FAA7F1B1FA81F101F01F0106FAFD
:100AD00001F10842E4D01FE0FFF790FC804605E0FA
:100AE000FFF78CFCA0EB08006428DED897FAA7F08B
:100AF000B0FA80F040F02000400902D0286801E000
:100B0000B9E0686A97FAA7F1B1FA81F101F01F0123
:100B100006FA01F10842E3D12078DFF8D882800795
:100B20004FF0000A4FF002075DD568684FF0F80BF0
:100B300010F00C0F15D06868C0F38100022804D1B2
:100B40006868C0F3C13001280BD0E068A0B396FA02
:100B5000A6F0B0FA80F048F82060FFF74FFC81461D
:100B600020E097FAA7F0B0FA80F040F020004009AA
:100B700001D0286800E0686A97FAA7F1B1FA81F11C
:100B800001F01F0106FA01F1084221D0E0680128B6
:100B900071D11DE056E100BFFFF730FCA0EB09006A
:100BA0000228A2D897FAA7F0B0FA80F040F020000F
:100BB000400902D0286801E016E0686A97FAA7F1B8
:100BC000B1FA81F101F01F0106FA01F10842E3D008
:100BD00028689BFAABF22169B2FA82F220F0F800A1
:100BE00091400843286024E096FAA6F1B1FA81F119
:100BF00048F821A0FFF702FC814605E0FFF7FEFB65
:100C0000A0EB09000228CCD897FAA7F0B0FA80F040
:100C100040F02000400901D0286800E0686A97FA97
:100C2000A7F1B1FA81F101F01F0106FA01F10842C2
:100C3000E4D1207800076AD56069A0B396FAA6F0DF
:100C4000B0FA80F008EB8000C0F88064FFF7D6FBB4
:100C5000814605E0FFF7D2FBA0EB09000228A0D8EF
:100C600097FAA7F0B0FA80F040F06000B6EB501FA2
:100C700002D128680CE073E197FAA7F0B0FA80F08F
:100C800040F06000B7EB501F01D1286A00E0686AAD
:100C900097FAA7F1B1FA81F101F01F0106FA01F20A
:100CA0001042D7D033E0FFE796FAA6F0B0FA80F012
:100CB00008EB8000C0F880A4FFF7A0FB814605E0A8
:100CC000FFF79CFBA0EB090002289CD897FAA7F03D
:100CD000B0FA80F040F06000B6EB501F01D12868F8
:100CE0000BE097FAA7F0B0FA80F040F06000B7EBA5
:100CF000501F01D1286A00E0686A97FAA7F1B1FA9B
:100D000081F101F01F0106FA01F21042D8D12078DA
:100D1000400774D5E8694FF00009C00009D4E869BC
:100D200040F08050E861E8694FF0010900F0805020
:100D3000009031480168C90512D4016841F48071FE
:100D40000160FFF75BFB834606E000BFFFF756FB41
:100D5000A0EB0B00642875D827480068C005F5D5BE
:100D6000A06801280AD008B1052811D0286A20F00F
:100D700001002862286A20F0040002E0286A40F09E
:100D800001002862A068C8B3FFF738FB83460DE076
:100D9000286A40F004002862F0E700BFFFF72EFB4E
:100DA000A0EB0B0141F2883081424BD897FAA7F0B3
:100DB000B0FA80F040F04000B6EB501F01D1286837
:100DC0000BE097FAA7F0B0FA80F040F04000B7EBE4
:100DD000501F01D1286A00E0686A97FAA7F1B1FABA
:100DE00081F101F01F0106FA01F21042D6D035E080
:100DF00000100240000042420070004000E034E079
:100E0000FFF7FCFA834607E0FFF7F8FAA0EB0B01C7
:100E100041F28830814215D897FAA7F0B0FA80F0F5
:100E200040F04000B6EB501F01D128680CE097FA63
:100E3000A7F0B0FA80F040F04000B7EB501F02D1AD
:100E4000286A01E089E0686A97FAA7F1B1FA81F1AE
:100E500001F01F0106FA01F21042D5D1B9F1000FDD
:100E600003D0E86920F08050E861A06980B3696828
:100E7000C1F38101022973D04FF080714F00022825
:100E8000524609D091FAA1F0B0FA80F048F820203B
:100E9000FFF7B4FA044664E091FAA1F0B0FA80F0EA
:100EA0008A46C14648F82020FFF7A8FA804605E0A8
:100EB000FFF7A4FAA0EB080002284ED897FAA7F093
:100EC000B0FA80F040F02000400902D0286801E02C
:100ED0005CE0686A97FAA7F1B1FA81F101F01F01AD
:100EE00006FA01F10842E3D1E86A616A20F00F00D6
:100EF0000843E862D4E907100843696821F47611D1
:100F0000084368609AFAAAF0B0FA80F049F82060C5
:100F1000FFF774FA044604E0FFF770FA001B02289A
:100F20001BD897FAA7F0B0FA80F040F020004009F3
:100F300001D0286800E0686A97FAA7F1B1FA81F158
:100F400001F01F0106FA01F10842E5D01EE000BFE2
:100F5000FFF754FA001B022803D90320BDE8F88FDD
:100F600016E097FAA7F0B0FA80F040F020004009B0
:100F700001D0286800E0686A97FAA7F1B1FA81F118
:100F800001F01F0106FA01F10842E1D10020E5E776
:100F90000120E3E74FF0E0210428086903D020F0A6
:100FA00004000861704740F00400FAE7704710B58C
:100FB000401EB0F1807F01D3012010BD4FF0E0242E
:100FC00060610F21601700F033F90020A061072055
:100FD0002061002010BD10B5FFF7E8FF10BD10B56F
:100FE000040003D094F8690010B107E0012010BD9F
:100FF000002084F86800204600F026F8242084F8B9
:1010000069002068016821F001010160204600F0BC
:1010100029FA0128EBD0606A10B1204600F090F95F
:101020002068416821F4904141602068816821F086
:101030002A0181602068016841F0010101602046B9
:10104000BDE8104000F0E0B900B500680E4987B077
:10105000884216D10D48C16941F40031C161C069AF
:10106000694600F4003005900C20009002200190A9
:10107000002002900390072004904FF09040FFF76B
:10108000D1F807B000BD000000440040001002404D
:101090002DE9F843044690F869001F4616460D46B0
:1010A00020284DD1CDB1C6B194F86800012847D0B1
:1010B000012084F868004FF00008C4F86C802120FB
:1010C00084F869005034FFF799F924F8026B8146DF
:1010D00024F852694FF4805618E00120BDE8F883E7
:1010E000B4F85200401EA4F852004B460022802162
:1010F0002046009700F0A2FAA0B9A068B04201D142
:10110000206988B115F8010B21680885B4F85200F0
:101110000028E5D14B46002240212046009700F0F0
:101120008DFA30B10320D9E735F8020BC0F308007F
:10113000EAE7202084F8690084F868800020CDE781
:101140000220CBE72DE9F041284886B0416941F4FF
:1011500000214161416901F400210591416941F497
:1011600080014161416901F480010591416941F4C7
:1011700000314161416901F400310591416941F457
:101180008021416140694FF0904700F48020059034
:10119000002220213846FFF72BF9DFF854804FF466
:1011A0008076002231464046FFF722F97001009018
:1011B00010480024CDE9010469464046FFF732F8A3
:1011C000202000900125CDE901546946384603945A
:1011D000FFF728F80220CDE90204CDE90065694651
:1011E0004046FFF71FF806B0BDE8F081001002404E
:1011F00000080048000021100C4810B50A490160A1
:101200004FF416514160002181600C22C160C0E999
:1012100004128161C16101624162FFF7E0FE0028B2
:1012200000D0FEE710BD0000004400401000002088
:101230000907090E002806DA00F00F0000F1E0208F
:1012400080F8141D704700F1E02080F8001470470A
:1012500010B5FFF7D9F8BDE81040FFF7BCBE30B5B8
:10126000A5B001201990102002251A90C002CDE9E6
:101270001C504FF4E0100024CDE91E04169516A86A
:10128000FFF7BCFB00B1FEE70F20CDE920054FF4CE
:101290008060CDE92240022120A82494FFF7AAFA19
:1012A00000B1FEE7684600950394FFF759F900B1D5
:1012B000FEE7FFF741FB4FF47A71B0FBF1F0FFF767
:1012C00076FE0420FFF766FE00221146501EFFF74F
:1012D00015F925B030BD00001448016841F47001D3
:1012E00001601348016841F0010101604168114A41
:1012F000114041600168104A11400160016821F409
:1013000080210160416821F4FE014160C16A21F041
:101310000F01C162016B094A114001630021816024
:101320000249C003803908607047000088ED00E082
:10133000001002400CC07FF8FFFFF6FECCFC00FF5F
:1013400090F82410C90706D001684A68836A22F41D
:1013500000321A434A6090F82410890706D50168C4
:101360004A68C36A22F480321A434A6090F8241013
:10137000490706D501684A68036B22F480221A43A4
:101380004A6090F82410090706D501684A68436B43
:1013900022F400421A434A6090F82410C90606D588
:1013A00001688A68836B22F480521A438A6090F83D
:1013B0002410890606D501688A68C36B22F400529E
:1013C0001A438A6090F82410490611D501684A68CA
:1013D000036C22F480121A434A60016CB1F5801F3D
:1013E00006D101684A68436C22F4C0021A434A607D
:1013F00090F82410090606D501684A68806C22F42A
:10140000002202434A607047F8B500260446C666CB
:10141000FEF7F4FF0546206800686FF07E4700077E
:1014200008D52B4600224FF400112046009700F00B
:1014300005F960B92068006840070AD52B460022EC
:101440004FF480012046009700F0F8F808B103201F
:10145000F8BD202084F8690084F86A0084F8686088
:101460000020F8BD2DE9F041044610202369A26850
:10147000E6691A436369002133431A4323680D4622
:101480001E68654F3E4016431E6022685368E6683A
:1014900023F4405333435360236AA2691A432368F9
:1014A0009E6826F4306616439E605C4F22685C4B53
:1014B0000603BA420CD11B6B13F0030306D0012BB9
:1014C0004DD0022B4DD0032B4CD146E0012049E0FA
:1014D000544FBA420CD11B6B13F440333BD0B34290
:1014E0003DD0B3F5003F3CD0B3F5403F3AD134E0B6
:1014F0004D4FBA420DD11B6B13F440232BD0B3F5E3
:10150000802F2CD0B3F5002F2BD0B3F5402F29D14D
:1015100023E0464FBA420DD11B6B13F440131AD08F
:10152000B3F5801F1BD0B3F5001F1AD0B3F5401FD1
:1015300018D112E03E4FBA4214D11B6B13F4400392
:1015400009D0B3F5800F0AD0B3F5000F09D0B3F579
:10155000400F07D101E0002004E0022002E0042057
:1015600000E00820E7694FF400439F4227D1092893
:101570001ED2DFE800F00508131D161D1D1D190001
:10158000FFF7E0F901E0FFF7F5F94100D4F80400B6
:1015900001EB5001B1FBF0F081B20AE0254960682F
:1015A000F6E7FFF7FFF9F0E7606806EB5001F1E7B7
:1015B000012521F00F00C1F3420108431CE0092876
:1015C00025D2DFE800F005080B24102424241C0099
:1015D000FFF7B8F909E0FFF7CDF906E016496068B2
:1015E00001EB50010EE0FFF7DDF90146606801EB09
:1015F0005001B1FBF0F080B22168C86008E060687B
:1016000003EB5001B1FBF0F080B2D06000E00125A7
:101610002846BDE8F0810000F369FFEF0038014083
:10162000001002400044004000480040004C0040D0
:10163000005000400024F40000127A002DE9F0412F
:10164000984617460E460446069D1DE0681C1BD0B2
:101650002DB1FEF7D3FEA0EB0800A84214D92068F4
:10166000016821F4D07101602068816821F00101D6
:101670008160202084F8690084F86A00002084F8E2
:1016800068000320BDE8F0812068C06936EA0000E8
:1016900004D00020B842D9D00020F3E70120F9E7B8
:1016A00002E008C8121F08C1002AFAD1704770472B
:1016B000002001E001C1121F002AFBD17047000089
:1016C0001FB5FEF7A9FEFFF7CAFDFFF73BFDFFF7C9
:1016D00093FD06A04FF47A740FC88DE80F0068469A
:1016E00000F00CF82046FEF78BFDF8E74865696CC2
:1016F000204D6F726D6F74610000000038B50546B3
:101700000BA000240068009006E029190A2301229A
:101710000848FFF7BDFC641C2846FEF757FDA042B1
:10172000F3D80A23022269460248FFF7B1FC38BD0C
:101730000D0A000010000020020304050607080936
:101740000A0B0C0D0E0F101001020304050607080A
:10175000090A0B0C0D0E0F10000000000000000025
:101760000102030406070809000000000102030447
:10177000901700080000002010000000A0160008CC
:10178000A01700081000002070040000B016000828
:1017900001000000100000000000000000127A00AC
:040000050800019559
:00000001FF
